{
  "contractName": "DappToken",
  "abi": [
    {
      "inputs": [],
      "payable": false,
      "stateMutability": "nonpayable",
      "type": "constructor"
    },
    {
      "constant": true,
      "inputs": [],
      "name": "totalSupply",
      "outputs": [
        {
          "internalType": "uint256",
          "name": "",
          "type": "uint256"
        }
      ],
      "payable": false,
      "stateMutability": "view",
      "type": "function"
    }
  ],
  "bytecode": "0x6080604052348015600f57600080fd5b50620f42406000819055506084806100286000396000f3fe6080604052348015600f57600080fd5b506004361060285760003560e01c806318160ddd14602d575b600080fd5b60336049565b6040518082815260200191505060405180910390f35b6000548156fea265627a7a72315820086851bad593645bb3b2a250b3e4b0811a2ec14f294522cf16bf181a00fa5e9a64736f6c63430005100032",
  "source": "pragma solidity ^0.5.16;\n\ncontract DappToken {\n    // Constructor\n    // set the total number of tokens\n    // read the total number of tokens\n\n    uint256 public totalSupply;\n\n    // function DappToken () public {\n    //     totalSupply = 1000000;\n    // }\n\n    constructor () public {\n        totalSupply = 1000000;\n    }\n}\n",
  "sourcePath": "/Users/nomadengineers/token_sale/contracts/DappToken.sol",
  "compiler": {
    "name": "solc",
    "version": "0.5.16+commit.9c3226ce.Emscripten.clang"
  },
  "schemaVersion": "3.2.3",
  "updatedAt": "2021-09-08T02:26:19.479Z",
  "networkType": "ethereum",
  "devdoc": {
    "methods": {}
  },
  "userdoc": {
    "methods": {}
  }
}